:100000000C94BC010C94D9010C94F4010C94D9010A
:100010000C94D9010C940C280C94D9010C94D9019E
:100020000C94D9010C94DD270C94D9010C94AE27C3
:100030000C94D9010C94D9010C94D9010C94D901D8
:100040000C94D9010C94D9010C94D9010C94D901C8
:100050000C94D9018C217821A8217C217E2180213A
:100060008421A62188218A2186219421AE218E21F6
:10007000B221B621BF21B821B821B821B821B821B9
:10008000B821B821B821B821A421A221B021922100
:10009000B421BA217A21B821B821B821B821B821D8
:1000A000B821B821B821B821B821B821B821B82188
:1000B000B821B821B821B821B821B821B821B82178
:1000C000B821B821B821B821B82196219E219A21C2
:1000D00082219021AA21B821B821B821B821B821C4
:1000E000B821B821B821B821B821B821B821B82148
:1000F000B821B821B821B821B821B821B821B82138
:10010000B821B821B821B821B8219821A0219C217B
:10011000AC2105010906A101050719E029E7150031
:1001200025019508750181029501750881039505E2
:1001300075010508190129059102950175039103BF
:100140000507190029FF95067508150026FF00818F
:1001500000C00600FF0901A101150026FF00750877
:10016000850195070900B20201850295830900B255
:100170000201C005010980A1018504150125B719F7
:100180000129B7751095018100C0050C0901A10175
:1001900085031501269C0219012A9C027510950100
:1001A0008100C009023B00020100A0FA090400001E
:1001B000010301010009210101000122400007059E
:1001C0008103080001090401000103000000092166
:1001D0000101000122510007058303080001FEF818
:1001E000F6FB01020408102040800000FC001C32D5
:1001F0002123242B3433433B424B3A31444D152DBC
:100200001B2C3C2A1D22351A161E26252E363D3E55
:1002100046455A76660D294E55545B5D5D4C520E2F
:1002200041494A580506040C030B830A0109780763
:100230007C7E7C706C7D71697A746B7275774A7C98
:100240007B795A69727A6B73746C757D7071612FEA
:10025000001412111F145911270000373F5E481077
:100260003A38302820184D153B34233221502B408A
:100270004B1C43221D0000F1F2370F0810182028F4
:100280003038404850575F6D000081008200830085
:100290008A012102230224022502260227022A02C1
:1002A000B500B600B700CD00E200E900EA00830126
:1002B00092019401000000000000000000009190F5
:1002C000666768696A6B6C6D6E6F70717273858634
:1002D000464800488E8D007172738F006A6B6E6D98
:1002E0006546494A4B4C4D4E52504F5154587172CD
:1002F000737475767778797A7B7C7D7E7F80818256
:10030000838485868788898A8F00494C4A4D4B4E65
:100310006A6E65504F525154003953470004030927
:10032000041C03770069006E006B00650079006CA7
:10033000006500730073002E006B007200120370E2
:100340000073003200610076007200470042001224
:1003500001100100000008A0202D4204010102004C
:100360000145464765666700202B2D2E303132331C
:10037000343536373839680011241FBECFE5D8E050
:10038000DEBFCDBF10E0A0E6B0E0EAE0F8E502C0D5
:1003900005900D92A238B107D9F714E0A2E8B0E0B9
:1003A00001C01D92AE3CB107E1F70E9495280C9464
:1003B000032C0C940000A82FB92F80E090E041E0BE
:1003C00050EA609530E009C02D9182279795879576
:1003D00010F084279527305EC8F36F5FA8F3089567
:1003E000EADF8D939D930895CF93CFB7CF93C395B5
:1003F000839BE9F7839B0EC0839B0CC0839B0AC041
:10040000839B08C0839B06C0C091A504C395C0937D
:10041000A504A3C0DF93C091A404DD27C455DB4F1E
:10042000839B02C0DF91E6CF2F930F931F9300B3FE
:100430002FEF03FB20F94F933F9310B34FEF0127AA
:1004400003FB21F93BE031C04E7F012F10B3216047
:1004500028C0102F4D7F2260000000B329C04B7FC1
:100460002460012F000010B32BC010B3477F286019
:100470002AC04F7E00B320612CC04F7D10B3206294
:100480002FC04F7B00B3206432C0422700B3499392
:100490004FEF0000102713FB20F910B31C70C9F1B7
:1004A000297F91F2012703FB21F900B3237F89F211
:1004B000315058F1102713FB22F910B3277E79F23F
:1004C000012703FB23F92F7C81F200B3102713FBD4
:1004D00024F92F7971F200C010B3012703FB25F92D
:1004E0002F7359F200C000B3102713FB26F92230F6
:1004F00040F200C010B3012703FB27F9243028F68F
:100500004F77206810B30000F9CF10E81ABF00271A
:1005100019C03B503195C31BD04010E81ABF088169
:10052000033CF9F00B34E9F02091A1041981110F7B
:100530001213EDCF4A81441F093641F10D3211F0FB
:10054000013E29F70093AA043F914F911F910F910B
:100550002F91DF91CAB7C7FD4ACFCF91CFBFCF91BF
:1005600018952091AA04222379F31091A80411234D
:10057000C1F53430C2F13093A8042093A304109144
:10058000A4043BE0311B3093A4042DC00091A804C7
:1005900001303CF50AE54F7049F430917F0034FD9D
:1005A00024C000937F00CAE8D4E023C0433049F060
:1005B0003091950434FD19C000939504C6E9D4E048
:1005C00018C03091C20434FD10C00093C204C3ECC3
:1005D000D4E00FC02795A8F45150A9F4220F0000D1
:1005E000F9CF4AE503C042ED01C0432FC4E1D0E09A
:1005F00032E011B31C60939A11BB02B320E41CE0FB
:100600005F93012756E002BB279520F4515021F457
:10061000220FF9CF012756E000003B5A02BBD0F26F
:10062000279528F4515029F4220F0000F9CF012713
:1006300056E0279502BB20F4515021F4220FF9CF48
:10064000012756E02991332302BB21F6037F109145
:10065000A904110FC651D04002BB11F01093A104A0
:1006600010E81ABF086011B3137F402F437F5F91DA
:1006700000C000C002BB11BB42BB66CFA89AA99ABA
:1006800086B7846086BF109282000895BC010898E6
:10069000099880EE9EE20E94102A603130F0862F89
:1006A00090E0409795958795682F60B9089586B733
:1006B0008F70806A86BF089586B78F70806D86BF01
:1006C0000895FC01108205C080818F5F8083803A8D
:1006D00018F406B607FEF8CF089583B986B78F7071
:1006E000806886BF0895CF92DF92EF92FF920F93BA
:1006F0001F93DF93CF930F92CDB7DEB7E82EF62E80
:100700006A0186B78E7F86BF0E9457038E010F5FF6
:100710001F4FC8010E9461038981803A08F58E2D20
:100720008E7F0E946D03C8010E9461038981803A17
:10073000B8F481B1883159F011E00CC0F601819113
:100740006F010E946D03C8010E946103FA94FF20AB
:10075000A9F710E00E945C0386B7816086BF01C0E4
:1007600011E0812F0F90CF91DF911F910F91FF909A
:10077000EF90DF90CF9008950F931F93982FF8017B
:10078000442321F0222391F484E003C0222371F05A
:1007900082E08083662329F080912701892B809352
:1007A000270180912601892B809326011F910F91AB
:1007B00008952091A200222309F457C08091A80037
:1007C0009091A90001969093A9008093A800853686
:1007D00091050CF452C0213011F02330E1F48091E6
:1007E0002601982F80FF07C08091270180FF02C05B
:1007F000909A01C0909891FF07C08091270181FFD6
:1008000002C0919A01C0919896FF27C0809127015C
:1008100086FF20C021C0243011F02230F1F48091F5
:100820002601982F80FF07C08091270180FF02C01A
:10083000909801C0909A91FF07C08091270181FF95
:1008400002C0919801C0919A96FF07C0809127013C
:1008500086FF02C0969801C0969A1092A900109245
:10086000A80021502093A200089510922701109211
:1008700026011092A9001092A8000895662361F045
:10088000813011F4909A0895823011F4919A08956C
:10089000843069F4969A0895813011F490980895FF
:1008A000823011F491980895843009F4969808954F
:1008B000CF93DF93FC018091680081838091860053
:1008C000828380910E0190910F0163E070E00E949D
:1008D000102A6383EF012496A7E1B1E083E00D9035
:1008E00009928150E1F7EF012796AAE1B1E083E098
:1008F0000D9009928150E1F7EF012A96ADE1B1E048
:1009000083E00D9009928150E1F789EF90E09F011B
:10091000235F3F4FE901DC0143E00D900992415014
:10092000E1F703962D5F3F4F41E08E30940791F73A
:100930008091830082A3EF01A396A0E2B1E083E05F
:100940000D9009928150E1F780918B0086A38091F0
:10095000690087A380918A0080A78091670081A7A2
:10096000EF01E096AAEAB0E083E00D900992815091
:10097000E1F790916B009295907F80916A008F7063
:10098000982B93A7DF91CF910895809183008F5F7B
:1009900080938300833011F410928300809184004F
:1009A0008160809384000895EF92FF920F931F93CC
:1009B00020910E0130910F01809115019091160147
:1009C0008217930720F08FEF8093B0001DC06091D5
:1009D0001301709114017B01E81AF90A621B730B71
:1009E00080E090E02DEC30E040E050E00E94E5290E
:1009F0000027F7FC0095102FA80197010E94372AC5
:100A00002E5C3F4F2093B0001F910F91FF90EF900D
:100A10000895209110013091110180910E01909163
:100A20000F012817390720F430930F0120930E018E
:100A30000895882309F448C0809368008F3F11F41B
:100A40008CE003C0893118F088E180936800209120
:100A500068008CEC95E1622F70E00E94242A70936C
:100A600014016093130132E06B3F730734F08AEF97
:100A700092E090931401809313018EE898E0622F26
:100A800070E00E94242A709316016093150122E001
:100A90006B3F720734F08AEF92E0909316018093D7
:100AA000150180918100882329F48091150190918E
:100AB000160104C0809113019091140190931101CB
:100AC000809310010E9409050895109285000895F1
:100AD0008093A30008958091A3000895209167005A
:100AE00030E0AC01429FC001439F900D529F900D9A
:100AF00011246FEF70E00E94102A8091B000482FFF
:100B000050E09B014617570708F49A01C901089560
:100B10008F929F92AF92BF92CF92DF92EF92FF920D
:100B20000F931F93CF93DF93EC0129819880822F3D
:100B300090E0890D911D8A80880D911D60910E01B4
:100B400070910F016817790760F57B0100E010E0F4
:100B50005C01CC24DD2430E040E050E0C801B70166
:100B60000E94E529A60195010E94372A2983692D53
:100B700070E080E090E0A80197010E94E529A601BD
:100B800095010E94372A2883682D70E080E090E06C
:100B9000A80197010E94E529A60195010E94372A24
:100BA0002A839981933050F08881981739F48A818B
:100BB000981721F49150988391509A83DF91CF91A7
:100BC0001F910F91FF90EF90DF90CF90BF90AF906B
:100BD0009F908F9008958091A0008F5F8093A000D8
:100BE000873010F01092A0000895FC0180818730BA
:100BF00010F08750808308950F931F93CF93DF9356
:100C0000EC010E94F5050091680010E019C02881F0
:100C1000822F90E0FC01EE0FFF1FE80FF91FE75055
:100C2000FF4F8181882371F48081882359F4828168
:100C3000882341F42F5F2883CE010E94F5051F5FB2
:100C4000101728F3DF91CF911F910F9108951F93F3
:100C5000FC01DB011081E12FF0E05C91252F30E0F9
:100C6000642F70E0CB01820F931F8E179F0714F43F
:100C7000540F06C0261B370BE217F3071CF4541B56
:100C80005C9301C01C931F91089581E080939600AE
:100C900008959C0180918700882319F4C9010E945E
:100CA000AB27089590918A00913029F410928D001D
:100CB00010928C000895923029F48FEF90E00E94FA
:100CC0006E051BC0892F83508230A8F483E0809387
:100CD0009100943019F481E080939100809191000B
:100CE0009FEF899FC00111246CE070E00E94242ACC
:100CF00060939000089580E090E00E944906089576
:100D000080918A00823011F40E94520608950E9458
:100D1000D404809186008250833018F482E080935E
:100D20009B000E94800680918900846080938900E6
:100D300008958130A1F4809167008E3181F189514D
:100D4000809367008E3118F48EE1809367000E94D3
:100D500080068091890082608093890008958230A6
:100D6000F1F480910E0190910F018536910518F4F0
:100D700082E390E002C08456904090930F018093EC
:100D80000E0180910E0190910F01C29730F482E321
:100D900090E090930F0180930E010E9487060895C2
:100DA0008130A9F4809167008F3F09F190E0499666
:100DB0008F3F910511F00CF08FEF809367000E9438
:100DC0008006809189008260809389000895823036
:100DD00071F480910E0190910F018C599F4F909367
:100DE0000F0180930E010E9409050E948706089555
:100DF00080E090E00E944906949881E0809388000A
:100E00008093870008959098919896980E94F8068C
:100E100008950F931F93082F122F0E94F91E882305
:100E200009F048C080918700882309F043C011234E
:100E300069F120918A00233008F184EF91E09093CA
:100E40008F0080938E00809191008C3030F423309D
:100E500011F48F5F05C0882329F0243019F48150E4
:100E600080939100809191009FEF899FC001112490
:100E70006CE070E00E94102A60939000053FD1F072
:100E800081E08093980080939B0014C082E080935F
:100E900098008091A100882369F01092A1008091B0
:100EA0009900882321F081E080939A0003C081E0BB
:100EB00080939C001F910F9108956091680083E0DA
:100EC000689FB00111246093120180EB41EB50E068
:100ED0000E9473031092120108950F931F93CF93F2
:100EE000DF938C019091680041EB50E083E0989F84
:100EF000B0011124EB01C40FD51F09C0DA01F801BC
:100F000083E001900D928150E1F74D5F5F4F4C17E8
:100F10005D07A1F7609312010E945D07DF91CF91F9
:100F20001F910F9108951092B2001092B10010928B
:100F3000B300109224011092230110922501109207
:100F4000AE00EEEAF0E012921092AF00CF010E94E4
:100F50006D070895DF93CF9300D00F92CDB7DEB722
:100F600069837A838B83CE0101960E9488059091D4
:100F700024018A81981751F490912301898198174F
:100F800029F4909125018B81981769F0A3E2B1E0D3
:100F9000FE01319683E001900D928150E1F7CE0180
:100FA00001960E946D070F900F900F90CF91DF91E7
:100FB00008950F931F93182F092F0E94D404ADEAB0
:100FC000B0E0212F302FC901FC0183E001900D9288
:100FD0008150E1F76091AD007091AE008091AF005B
:100FE0000E94AA071F910F910895FF920F931F93DC
:100FF000CF93DF9310929E00F0906800C1EBD0E099
:1010000083E0F89E800111240C0F1D1F1DC08EE986
:1010100090E00E94FC0580919E0090E0FC01EE0FA4
:10102000FF1FE80FF91FDE01E750FF4F83E001903B
:101030000D928150E1F7CE010E94880580919E00BB
:101040008F5F80939E002396C017D10701F78F2DE5
:1010500090E0FC01EE0FFF1FE80FF91FADEAB0E0D2
:10106000EF54FF4F83E001900D928150E1F70E9411
:101070005D07DF91CF911F910F91FF900895FF922F
:101080000F931F93DF93CF930F92CDB7DEB7F62E5A
:10109000042F1982813041F582B3862B82BB40E058
:1010A0008091A300802309F041E020E08091A4001A
:1010B000802309F021E08F2D61E08E010F5F1F4F2B
:1010C0000E94BC038981882309F0BAC00E948D2246
:1010D000182F0E94902240E0111141E020E0811180
:1010E00021E08F2D61E0A7C0823051F582B3962FA9
:1010F0009095982392BB40E08091A300802309F053
:1011000041E020E08091A400802309F021E08F2DB0
:1011100060E08E010F5F1F4F0E94BC03898188230E
:1011200009F08EC00E948D22182F0E94902240E06C
:10113000111141E020E0811121E08F2D60E07BC0A2
:101140008823A9F41091A300142319F082B3862BED
:1011500004C092B3862F8095892382BB0E948D2282
:10116000082F0E94902260E01123C1F016C0833046
:10117000D1F41091A300142329F092B3862F809507
:10118000892302C082B3862B82BB0E948D22082F46
:101190000E94902260E0112309F461E040E0011117
:1011A00041E020E045C0843091F40E948D228230DD
:1011B00019F482B38F2904C092B38F2D80958923AF
:1011C00082BB0E948D2260E0823041F526C08530CE
:1011D00091F40E948D22833019F482B38F2904C0C8
:1011E00092B38F2D8095892382BB0E948D2260E06F
:1011F0008330A1F412C0863019F50E948D22882315
:1012000019F082B38F2904C092B38F2D8095892362
:1012100082BB0E948D2260E0811161E040E08091FC
:10122000A300802309F041E020E08091A400802306
:10123000811121E08F2D8E010F5F1F4F0E94BC0393
:1012400089810F90CF91DF911F910F91FF900895A9
:101250008091AA0061E041E00E943F08882311F0DC
:101260008093A2008091AB0062E042E00E943F08C0
:10127000882311F08093A2008091AC0060E444E0E8
:101280000E943F08882311F08093A2008091A30060
:101290008093A40080916B008F3021F00E948D22FA
:1012A000823041F080916A008F3051F00E948D228F
:1012B000833031F481E08093A100809399000895F8
:1012C000809199008823A9F080916B008F3021F0E4
:1012D0000E948D22823041F480916A008F3049F063
:1012E0000E948D22833029F081E08093A10010922A
:1012F00099000895882371F080E00E94632789B7E0
:101300008B7F89BF80E090E00E94490694980E94FC
:10131000A42708950E9468270E949D2780918A0033
:10132000823011F40E945206089580918100882332
:1013300031F480918600811181E00E947A0981E078
:1013400080939C000895CF92DF92EF92FF920F93CB
:101350001F93CF93DF9380918700882309F09AC071
:1013600020918A00213009F046C08091920090912E
:10137000930001969093930080939200089709F050
:1013800089C0109293001092920080918C00882363
:1013900031F480918D0090E00E946E050AC0823089
:1013A00061F420918D008FEF90E0821B91090E94E3
:1013B0006E0590E00E94490609C0813011F083302B
:1013C00029F480918D008F5F80938D0080918D0036
:1013D0008F3F69F410928D0080918C008F5F809315
:1013E0008C00843008F456C010928C0053C08F5F7C
:1013F00080938D004FC0822F8350823008F04AC006
:1014000080918E0090918F001816190634F4019780
:1014100090938F0080938E0035C0233029F4809103
:101420009000882339F426C0243039F5809190004B
:101430008F3F19F180918D008F5F80938D008830F0
:1014400008F110928D0080919000233011F48150AA
:1014500001C08F5F80939000209190008FEF90E00B
:10146000821B91096BEE7FEF0E94242A645F6093D8
:10147000910008C01092910003C08CE0809391000D
:1014800010928D008091900090E00E946E0590E097
:101490000E94490680919400909195000196909346
:1014A000950080939400889708F4DEC2109295000E
:1014B0001092940080919600882369F00E9493070F
:1014C0008B9A28E088E190E00FB6F894A89581BD4A
:1014D0000FBE21BDFFCF80919700882379F00E9435
:1014E0009307809197000E9419050E94D4040E94DE
:1014F00052060E94950910929700B6C2809188000A
:10150000882329F0109288000E949307ADC2809131
:101510008700882309F0A8C280919800813009F0E3
:1015200041C010929800809183008130B9F4A1EB02
:10153000B0E0E0E2F1E083E001900D928150E1F74C
:1015400081EB90E00E948805A3E2B1E0E1EBF0E0DE
:1015500083E001900D928150E1F71FC0823009F0C5
:1015600083C28091AD0080958093B1008091AE00E0
:1015700080958093B2008091AF0080958093B300F6
:1015800081EB90E00E948805A3E2B1E0E1EBF0E09E
:1015900083E001900D928150E1F781EB90E00E9491
:1015A0006D0762C28230A1F5109298008091990077
:1015B000882321F080919A008823C9F080919B00B4
:1015C0008130E9F480918600813051F480918B0064
:1015D000833019F40E94F50712C0843081F007C0EF
:1015E000882329F48DEA90E00E946D0708C060917D
:1015F000AD007091AE008091AF000E94AA0780916B
:101600009B00823011F40E94950910929B002CC21D
:1016100080919A00882341F110929A00109224013F
:1016200010922301109225010E948D22823051F4E4
:1016300080916B000EC0813089F48AE191E00E94B4
:10164000D90712C20E948D22833009F00DC2809109
:101650006A00882381F787E191E0F1CF823009F0B9
:1016600003C28DE191E0EBCF80916B008F3029F0C8
:101670000E948D22823009F4F7C180916A008F3078
:1016800029F00E948D22833009F4EEC180919C00E4
:10169000882309F44FC010929C008091860081300D
:1016A00079F40E94D40410929D0010929E00109232
:1016B0009F0010922401109223011092250137C03F
:1016C000823061F40E94D404ADEAB0E0E7E1F1E0D9
:1016D00083E001900D928150E1F71BC0833061F4EB
:1016E0000E94D404ADEAB0E0EAE1F1E083E00190C9
:1016F0000D928150E1F70DC08430A1F40E94D40412
:10170000ADEAB0E0EDE1F1E083E001900D928150AF
:10171000E1F76091AD007091AE008091AF000E9442
:10172000AA0705C00E9493078FEF8093B0000E9424
:1017300080069AC180919B00813029F480918300BA
:10174000882309F091C180918600813009F08CC115
:1017500080918B00813031F580919D008150809384
:101760009D008F5F09F080C18091690080939D008A
:101770008091A00090E0FC01EE0FFF1FE80FF91F21
:10178000ADEAB0E0E750FF4F83E001900D92815049
:10179000E1F76091AD007091AE008091AF000E94C2
:1017A000AA0760C1823009F07AC090919E008091B2
:1017B0006800981708F03FC000E013E031C0802FA8
:1017C00090E0201778F4FC01EE0FFF1FE80FF91FDF
:1017D000EF54FF4FADEAB0E083E00D9001928150ED
:1017E000E1F716C0DC01AA0FBB1FA80FB91F80913B
:1017F000A00090E0FC01EE0FFF1FE80FF91FAF54AF
:10180000BF4FE750FF4F83E001900D928150E1F709
:10181000019FC00111248F549F4F0E9488050F5FC4
:101820008091680020919E00081748F22F5F209356
:101830009E000E945D0790919E008091680098171D
:10184000C1F49F5F90939E008091A00090E0FC0106
:10185000EE0FFF1FE80FF91FADEAB0E0E750FF4FB2
:1018600083E001900D928150E1F78DEA90E00E94B3
:10187000880590919E0080916800891708F0F4C057
:1018800080919F008F5F80939F00909169008917DE
:1018900008F4EAC010929F0010929E00E3C08330CB
:1018A00059F480919D008F5F80939D00815009F0D5
:1018B000DBC00E94F507D8C0909169002091A0007C
:1018C000843009F081C020939E008FE0989FC00172
:1018D000112466E07FEF0E94242A7B0184E190E0DE
:1018E000E80EF91EDD2413E0C12E3DC08EE990E024
:1018F0000E94FC0580919E008C9DC00111248E01E8
:10190000000F111F0C0F1D1FB8016E547F4F865022
:101910009F4F4E2D0E94270680919E008C9DC001F6
:101920001124B8016F547F4F87509F4F4E2D0E9456
:10193000270680919E008C9DC00111240D541F4FDD
:1019400085509F4FB8014E2D0E942706DC9CC00198
:1019500011248F549F4F0E94880580919E008F5FB5
:1019600080939E00D39480916800CD2DD0E0D8164E
:1019700008F4BCCFFE01EE0FFF1FEC0FFD1FADEA18
:10198000B0E0EF54FF4F83E001900D928150E1F7FA
:101990000E945D0720919F002E0D20939F0030E054
:1019A0008FEF90E08E199F092817390708F45CC063
:1019B00010929F008091A0008F5F8093A00080EA2A
:1019C00090E00E94FC0550C0892F90E06BEF7FEF04
:1019D0000E94242A8B010D5C1F4F73E0F72E2F9D70
:1019E000C001112486509F4F6EEA70E0402F0E9484
:1019F00027068091A0008F9DC001112487509F4F22
:101A00006DEA70E0402F0E9427068091A0008F9D14
:101A1000C001112485509F4F6FEA70E0402F0E9453
:101A200027066091AD007091AE008091AF000E94DA
:101A3000AA078091A00090E0FC01EE0FFF1FE80FC5
:101A4000F91FE750FF4F91818091AE00981761F424
:101A500090818091AD00981739F492818091AF0008
:101A6000981711F40E94EB05DF91CF911F910F9110
:101A7000FF90EF90DF90CF900895109287000E9422
:101A800028090E9452060E94950908951092870025
:101A90000E9452060E9495090895109289001092A2
:101AA000840089E090E00E94BD2B809367008BE06A
:101AB00090E00E94BD2B8F7080938A008F3011F4CC
:101AC00010928A008BE090E00E94BD2B82958F706F
:101AD000809386008F3011F41092860087E191E0A8
:101AE0006AE871E043E050E00E94AD2B8AE191E0AA
:101AF0006DE871E043E050E00E94AD2B8DE191E094
:101B000060E971E043E050E00E94AD2B89EF90E086
:101B100065E771E045E150E00E94AD2B85E090E083
:101B20000E94BD2B80938B0082E090E00E94BD2B31
:101B300090E08F3F910519F42DEE30E005C09C0137
:101B4000220F331F280F391F30930F0120930E01EE
:101B500084E090E00E94BD2B0E94190583E090E094
:101B60000E94BD2B8F70809383008F3011F41092F0
:101B7000830080E291E065EE73E043E050E00E9474
:101B8000AD2B83E991E00E94BD2B809369008F3FCC
:101B900011F488E703C08B3F18F08AEF8093690047
:101BA0008AEA90E064E971E043E050E00E94AD2BE6
:101BB0008091AA008F3F11F41092AA008091AB008F
:101BC0008F3F11F41092AB008091AC008F3F11F465
:101BD0001092AC008AE991E00E94BD2B8F70809337
:101BE0006A008AE991E00E94BD2B82958F708093F4
:101BF0006B000E94D4040E9452060E949509089529
:101C000080938600853010F010928600662329F4B8
:101C100010929B000E94950903C082E080939B0074
:101C20008091890081608093890008951F93182F07
:101C30000E94F91E8823E1F4113089F480918A0012
:101C40008F5F80938A00853011F410928A000E9481
:101C500052068091890081608093890009C012300A
:101C600039F4809186008F5F609183000E94000E9E
:101C70001F9108950F931F93082F162F0E94461E41
:101C8000112359F0093349F48230A1F0803291F0E8
:101C9000813069F0803119F40AC00D3F11F481E000
:101CA0000AC0013F59F4813011F0803119F40E94CB
:101CB000C5041DC082E00E94160E19C00A3F51F4EF
:101CC000823011F0803211F482E001C081E00E9484
:101CD000D0060DC0093F11F081E00AC0823011F03A
:101CE000803211F482E001C081E00E94990680E018
:101CF0001F910F910895CF93DF93DC0111968C9182
:101D000011978F3119F41092A50035C1803109F077
:101D100043C09091A500892F8150833038F5892FD9
:101D200090E00197FC01EE0FFF1FE80FF91FEE0F87
:101D3000FF1FE750FF4FED01229683E009900192CB
:101D40008150E1F78091A50090E0880F991F0197DD
:101D5000FC01EE0FFF1FE80FF91FE750FF4F15962C
:101D600083E00D9001928150E1F710C0943071F43E
:101D7000CBE0D1E0FD01329683E0019009928150E1
:101D8000E1F7809189008068809389008091A500A7
:101D90008F5F8093A500EFC0813169F4C7E1D1E086
:101DA000FD01329683E0019009928150E1F7809124
:101DB000890080610EC0823189F4CAE1D1E0FD0161
:101DC000329683E0019009928150E1F78091890079
:101DD0008062809389000E949509CDC0833169F4A7
:101DE000CDE1D1E0FD01329683E00190099281506E
:101DF000E1F7809189008064ECCF813A69F4C0E218
:101E0000D1E0FD01329683E0019009928150E1F723
:101E1000809184008260ADC0803231F412968C9142
:101E200060E00E94000EA7C08034B9F412968C9135
:101E300023E0829FC001112490930F0180930E0133
:101E4000892B31F483E090E090930F0180930E0191
:101E50000E9409050E948706BECF813241F4129686
:101E60008C918093830080918400816082C0833252
:101E700081F412968C9180938B0010929D001092A9
:101E80009E001092A00010929F00809184008460B8
:101E900070C0803341F412968C91809397008091AA
:101EA0008900886019C0803861F412968C91809303
:101EB0008A00809189008160809389000E94520687
:101EC0005AC0813861F412968C91809367000E9409
:101ED0008006809189008260809389004CC084389C
:101EE00041F412968C9180936900809184008860FF
:101EF00040C0853829F412968C918093AA000DC0B9
:101F0000863829F412968C918093AB0006C08738EE
:101F100051F412968C918093AC000E942809809114
:101F20008400806126C08A3831F512968C91129710
:101F30008F7080936A0012968C9182958F70809337
:101F40006B000E948D22823021F480916B008F30D3
:101F500041F00E948D22833041F480916A008F30DD
:101F600021F481E080939C0003C081E080939A007B
:101F700081E080938400DF91CF9108958091850066
:101F80008823A9F481E08093850088E00E9494274B
:101F900080918600882321F080918100813011F4A6
:101FA00080E001C081E00E947A090E944D0D0895F1
:101FB00081B3836581BB82B38C7A82BB0E943E036E
:101FC00080E991E00E9446030895CF93DF93EC01EE
:101FD0008091AA008130E1F0882329F48091A30048
:101FE00080FD16C00DC0833029F48091A30080FFCE
:101FF0000FC006C0843021F40E948D22823041F04F
:102000008091AA00853031F40E948D22833011F432
:10201000909801C0909A8091AB008130E1F08823C4
:1020200029F48091A30081FD16C00DC0833029F4EE
:102030008091A30081FF0FC006C0843021F40E946C
:102040008D22823041F08091AB00853031F40E94C6
:102050008D22833011F4919801C0919ACE010E9493
:1020600065208091AA008130E1F0882329F48091D5
:10207000A30080FD16C00DC0833029F48091A30019
:1020800080FF0FC006C0843021F40E948D22823070
:1020900041F08091AA00853031F40E948D22833076
:1020A00011F4909A01C090988091AB008130E1F0DA
:1020B000882329F48091A30081FF0EC015C08330CE
:1020C00029F48091A30081FD07C00EC0843021F463
:1020D0000E948D22823041F08091AB00853031F436
:1020E0000E948D22833011F4919A01C09198DF9162
:1020F000CF9108950E9454228823E1F08091A60098
:102100009091A70001969093A7008093A600855810
:1021100093409CF090916C00913011F4919801C023
:10212000919A1092A7001092A60081E098279093B0
:102130006C00089581E080936C0008958091850083
:10214000882309F492C00E94F91E882341F08091EF
:102150008800882309F489C00E94A30908950E9479
:102160007A100E94D90380918900882329F48091F4
:102170008400882309F477C0609186006295607FAF
:1021800080918A008F70682B8BE090E00E94D52BA5
:1021900089E090E0609167000E94D52B80910E014C
:1021A00090910F0163E070E00E94102A82E090E0BD
:1021B0000E94D52B84E090E0609168000E94D52BAE
:1021C00087E191E06AE871E043E050E00E94C52BAE
:1021D0008AE191E06DE871E043E050E00E94C52B98
:1021E0008DE191E060E971E043E050E00E94C52B91
:1021F00089EF90E065E771E045E150E00E94C52B72
:1022000085E090E060918B000E94D52B6091830067
:102210006F7083E090E00E94D52B80E291E065EE44
:1022200073E043E050E00E94C52B83E991E06091A8
:1022300069000E94D52B8AEA90E064E971E043E0EE
:1022400050E00E94C52B60916B006295607F809189
:102250006A008F70682B8AE991E00E94D52B10925A
:102260008900109284000E94A30908950F931F9380
:102270008C010E9458040E948823F80182A781E003
:1022800084A784E085A716A617A60E943B28F8011C
:1022900083AB0E944419F80184AB85E380831F91CE
:1022A0000F910895CF93DF93EC010E947B0E8981FB
:1022B000823841F490E08A81811191E0892F0E9457
:1022C0008B230BC0883821F48A810E943E2805C0E8
:1022D000893819F48A810E94621ADF91CF9108959A
:1022E000FC018381813261F08232D9F0823081F544
:1022F00083EA91E09093A7048093A6048BE308956A
:102300008281882319F0813019F503C085EB91E0B3
:1023100002C08EEC91E09093A7048093A60489E01C
:10232000089584819581009719F0019789F408C078
:1023300082E191E09093A7048093A60480E408953D
:1023400082E591E09093A7048093A60481E5089527
:1023500080E00895DF92EF92FF920F931F93D62EA5
:10236000E090A604F090A704062F10E0B701A801A2
:102370000E94AD2B0E0D1F1D1093A7040093A60401
:102380008D2D1F910F91FF90EF90DF9008951F9377
:102390009C01162F80912A01882329F010922A018E
:1023A00012502E5F3F4F60912B0170912C0143E042
:1023B000653E7407BCF4CB01810F911D865E93408E
:1023C00014F015EE161BC901412F50E00E94C52BD9
:1023D00080912B0190912C01810F911D90932C01E4
:1023E00080932B011F910895FC0180912901813078
:1023F00041F4613061F580810E94EB251092290142
:1024000026C08230C9F48181882369F46830B1F430
:1024100082818F3F29F481E090E060E00E94E62B0A
:102420000E94EF1314C0813049F48281813009F099
:1024300080E00E9478220BC0843021F4CF010E94FA
:10244000521105C0853019F4CF010E94C71181E0F7
:1024500008950F931F93CF93DF93EC010E94C22343
:1024600088818076803209F00EC10981013009F03F
:10247000AEC08A819B8122E08030920741F48BE7D5
:1024800094E09093A7048093A60488E0FDC043E005
:102490008230940789F42E813F812538310519F463
:1024A00000936301F0C0C901845B90400C9708F071
:1024B000EAC020936301E7C08150934009F0E3C074
:1024C0002E813F812436310559F40EE211E0C80116
:1024D0000E9436111093A7040093A60485E3D4C08C
:1024E00025363105B1F40E945422882331F080E072
:1024F0000E94782210922D0105C081E00E9478226E
:1025000000932D018DE291E09093A7048093A6049F
:10251000B8C0C901895790400497A8F480E480931B
:10252000A20488E790E0AC01249FC001259F900D94
:10253000349F900D1124885B924D9093A704809353
:10254000A60488E7A1C0C901885A90400C97A8F456
:1025500080E48093A20488EA90E0AC01249FC0014B
:10256000259F900D349F900D112480549640909398
:10257000A7048093A60488EA87C02639310559F458
:1025800080E48093A20480E895E69093A70480936A
:10259000A60480E879C0C901845B90400C97A8F438
:1025A00080E88093A20480E390E0AC01249FC00106
:1025B000259F900D349F900D11248B519042909344
:1025C000A7048093A60480E35FC0822F5DC009301A
:1025D000D9F58A819B8152E08030950739F48C814E
:1025E0009D81892B09F04FC081E02AC023E0823011
:1025F000920711F590916301913039F48FE189834D
:10260000CE010E94521184E012C0892F845B8C306D
:1026100080F481E080932A0180E3989FC001112417
:102620008B51904290932C0180932B0185E08093F5
:1026300029011092630106C08150934021F582E088
:10264000809329018FEF20C0023019F48091280176
:1026500014C00A3031F40E94C6238B818093280174
:1026600012C0033031F48B81882369F410926D001D
:102670000BC00B3041F480916D008093A604109242
:10268000A70481E001C080E0DF91CF911F910F91FD
:102690000895813011F090E006C090E0613009F0BB
:1026A00091E081E09827892F08958FEF87BB88BB41
:1026B0001ABA94B39B7B94BB8F988BBB85B38C6FFA
:1026C00085BB979A089521E030E002C0220F331FA6
:1026D0008A95E2F727BB209528BB84E18A95F1F71C
:1026E0000895282F883058F449B381E090E002C063
:1026F000880F991F2A95E2F74095482318C08E301D
:1027000078F443B38FE090E0821B910921E030E040
:1027100002C0220F331F8A95E2F74095422307C07B
:102720008E3011F040E003C040B340954078842FD4
:1027300008956F927F928F929F92AF92BF92CF92A5
:10274000DF92EF92FF920F931F93CF93DF93782E38
:10275000A92E6B0100E010E081E0882E912C662408
:102760006394802F0E946313C401002E02C0880F5F
:10277000991F0A94E2F7E82EB82EB094272D3A2D2F
:10278000C901EC01FF248F2D0E947113282F98811D
:102790008E2D892319F0222329F008C0222331F03D
:1027A0009E2901C09B219883F6016082F3942196B3
:1027B000FFE0FF1641F70F5F1F4F0830110589F644
:1027C000DF91CF911F910F91FF90EF90DF90CF900D
:1027D000BF90AF909F908F907F906F9008950E94D0
:1027E000450608958A98929A089592988A9A08952B
:1027F0008B98939A089593988B9A08958093650186
:10280000F894809184048F7E809384048091840462
:1028100088608093840478940895F8948091840467
:102820008B7F8093840478948091640108958091D3
:10283000840490E096958795969587958170089584
:102840008091840490E034E0969587953A95E1F77D
:10285000817008958FEC82BF80918304833000F5EE
:102860000E94F8138091840480FF23C0829BA3C040
:1028700080918304813031F0813040F0823009F062
:10288000F6C006C0839902C08DE096C082E094C075
:102890008091840483FFEBC00E94FB1384E28CC010
:1028A000809183048A3108F079C08091840480FD8E
:1028B00008C0809184048160809384040E94F21394
:1028C0000895829B76C080918304873140F48031E3
:1028D00018F58D3061F08F3009F055C00CC088318B
:1028E000E1F1883158F1893109F04DC049C080913A
:1028F00084048D7F4DC0809184048B7F80938404F9
:10290000839B05C080E88093640181E014C010922D
:1029100067011092640137C08091640186958093AD
:102920006401839B30C0809164018068809364015E
:10293000809167018F5F8093670125C0839B05C0ED
:10294000809167018F5F809367018091670180FDAF
:102950001AC080918404826010C0839905C0809160
:1029600084048260809384048091840481FD0BC080
:102970000E94FB138091840484608093840403C0CC
:102980000E94F8136CC00E94F513809184048E7F1E
:1029900080938404809183048F5F0EC080918304B0
:1029A0008F3208F064C08091840480FF10C0829947
:1029B00006C00E94F81381E08093830408958091FB
:1029C00084048E7F809384040E94F513089580917F
:1029D00084048160809384040E94F21380918304B4
:1029E0008C3228F4853280F48432E1F507C08D32D0
:1029F00099F18D32E8F08E32A9F531C080916501F0
:102A000080936601109267018091660180FF08C083
:102A10000E94F813809167018F5F8093670102C065
:102A20000E94FB13809166018695809366011AC00F
:102A30008091670180FF03C00E94FB1302C00E94C7
:102A4000F81380918404877F8093840480918404A8
:102A500080618093840406C00E94F81303C0109222
:102A600083040895809183048F5F80938304089585
:102A70001092830481E1809384040E94F2130E94E7
:102A8000F81382E00E94562780E06AE274E10E9417
:102A90007E278FEC82BF89B7816089BF0895282F78
:102AA0008F3F31F410926B0181E0809370010895A3
:102AB0008E3F21F08D3F29F410926B01109270012E
:102AC000089580917001882351F080916B01E82F67
:102AD000F0E0E25CFD4F20838F5F80936B0180917B
:102AE0006C0190916D01019690936D0180936C0142
:102AF000883C910524F010926D0110926C01809138
:102B00006E0190916F01E0916C01F0916D018E1753
:102B10009F0759F4009719F487EC90E001C00197E2
:102B200090936D0180936C010895EB58FE4F2083C4
:102B3000089540E020916E0130916F0180916C0109
:102B400090916D012817390709F441E0842F089509
:102B500010926F0110926E0110926D0110926C0133
:102B600010926B011092710110924802109249026A
:102B700010924A0210924B020895282F882339F0B0
:102B80008CEF90E0909373018093720102C01092D9
:102B90006A012093740108950E94991590E088239A
:102BA00009F491E0892F0895FF920F931F93182F36
:102BB000882309F4A0C08D3B08F09DC0A82FB0E089
:102BC000FD01E651FE4F0491662309F463C0809332
:102BD0003D02109248021092490210924A0210924D
:102BE0004B0210928704A45BBD4F8C91F82E81FF9D
:102BF0002DC0163419F01834F1F50EC08FEF0E9475
:102C00004F1580EE0E944F1582E10E944F1580EE15
:102C10000E944F158CE727C08DEF0E944F1581EE63
:102C20000E944F1584E10E944F1587E70E944F15BF
:102C300081EE0E944F1580EF0E944F1584E10E94A3
:102C40004F1580EF0E944F1587E710C082FF02C02A
:102C5000802F0CC08FEF0E944F15F0FE03C080EE56
:102C60000E944F15802F0E944F158EEF0E944F1526
:102C70008CEF0E944F15F5FE40C080916A018823B9
:102C8000E1F581E080936A01173411F40E94461E39
:102C90008BEF2EC080913D02811711F410926B01D1
:102CA000E12FF0E0E45BFD4F808181FF13C016341B
:102CB00021F580EE0E944F1580EF0E944F158CE7A2
:102CC0000E944F1580EE0E944F1580EF0E944F1515
:102CD00082E10BC082FD11C080FF03C080EE0E9424
:102CE0004F1580EF0E944F15802F0E944F158CEFDB
:102CF0000E944F1502C080E001C081E01F910F913A
:102D0000FF90089580917804882329F481E08093CE
:102D100078040E94BF2808951F93162F8E3F11F04C
:102D2000809386040E94FE13109387041F910895D8
:102D30000E94DE1B08958F929F92AF92BF92CF9216
:102D4000DF92EF92FF920F931F9388E080938704A6
:102D50000E943815ECE4F2E0119222E0EC3EF2071A
:102D6000D9F720ED32E006C0FC01E45BFD4F808125
:102D700082608083F901849190E02F5F3F4F00973C
:102D800099F723ED32E006C0FC01E45BFD4F808142
:102D900084608083F901849190E02F5F3F4F00971A
:102DA00099F727ED32E006C0FC01E45BFD4F80811E
:102DB00088608083F901849190E02F5F3F4F0097F6
:102DC00099F72CED32E006C0FC01E45BFD4F8081F9
:102DD00081608083F901849190E02F5F3F4F0097DD
:102DE00099F72AE033E006C0FC01E45BFD4F8081E7
:102DF00080618083F901849190E02F5F3F4F0097BD
:102E000099F729E133E006C0FC01E45BFD4F8081C6
:102E100080628083F901849190E02F5F3F4F00979B
:102E200099F70E94A81586E090E00E94BD2B8230A1
:102E300011F485E005C0833011F48AE001C081E01F
:102E4000809369018EE690E00E94581B80E790E035
:102E50000E9460280E94531A0E94241F789499248B
:102E60009394A5E0AA2EB12CC12CD12CF6E98F2E7B
:102E70008091840481FF07C0F894809184048D7F41
:102E80008093840478940E941714882309F4DAC08C
:102E900080917201909173018C3F910529F00E94FD
:102EA0009915882309F4CEC00E940D14182F809321
:102EB000EC0280E00E94BD1560918704623009F445
:102EC00059C0633018F4613039F44EC0663009F4EB
:102ED000A5C0673009F457C0133F79F1143F70F46F
:102EE0001E3ED1F01F3E20F41D3E09F0A7C022C0B7
:102EF000103FE9F0123F09F0A1C010C0163F39F1B0
:102F0000173F20F4143F09F099C01AC01E3F61F02A
:102F10001F3F09F093C005C08EEE92C08AEF64E0B7
:102F20008FC08AEF68E08CC08091860489C08AEFE8
:102F300062E086C08AEF66E083C08AEF67E080C007
:102F40008AEF60E00E948C160E9482167BC09092ED
:102F50007200A0927300B0927400C0927500D0927B
:102F600076000E94A8156AC0153F09F467C08AEF71
:102F700061E066C00E94A815112311F060E001C055
:102F800063E08AEF5DC0812F90E09C012076307075
:102F9000E5E035952795EA95E1F7209372009C01CD
:102FA000277030703093EE022093ED02887190709C
:102FB00073E0959587957A95E1F79093F002809369
:102FC000EF0241E050E020E030E004C0440F551F24
:102FD0002F5F3F4F28173907CCF34093F3025093EC
:102FE000F4023093F2022093F1028091ED0290916D
:102FF000EE029C01429FC001439F900D529F900D95
:103000001124AA2797FDA095BA2F8093730090935F
:103010007400A0937500B093760010C00E948216D1
:103020008091EC02982F80E090FD84E091FD81601A
:1030300092FD82600E9468050E9428098AEF60E084
:103040000E948C160E942014882309F411CF8091CD
:103050007401882309F00CCF80918704843009F42F
:1030600007C1853030F4882371F0833009F000CF38
:10307000FDC0883009F401C18C3009F482C085306C
:1030800009F0F6CEF8C00E949915882311F00E942D
:10309000981620916E0130916F0180916C01909192
:1030A0006D012817390711F480E014C0C901019699
:1030B00090936F0180936E01883C910524F01092EB
:1030C0006F0110926E01E0916E01F0916F01EB586B
:1030D000FE4F8081282F30E03093730120937201DE
:1030E0002B3F310521F481E00E94BD15C1CE2C3F5C
:1030F000310509F4BDCE232B61F060E00E948C16EF
:10310000109248021092490210924A0210924B0209
:10311000AAC080916B01882309F4A5C020914802C0
:103120003091490240914A0250914B022F5F3F4F2C
:103130004F4F5F4F209348023093490240934A0219
:1031400050934B0280917200889DC00111248A51D6
:103150009F4FAA2797FDA095BA2F281739074A072E
:103160005B070CF480C01092480210924902109242
:103170004A0210924B02109271018CE080938704F6
:1031800072C080917101882311F40E949816809179
:103190006B01882321F00E949915882359F410921D
:1031A0008704109248021092490210924A0210922B
:1031B0004B025ECE8091480290914902A0914A0252
:1031C000B0914B020197A105B10521F080917101E9
:1031D0008823A9F090917101E92FF0E0E25CFD4FA6
:1031E00080819F5F909371016CE00E948C166091CA
:1031F0006B01809171010E94042A90937101E0900B
:103200004802F090490200914A0210914B02089442
:10321000E11CF11C011D111D60917300709174007F
:1032200080917500909176002AE030E040E050E017
:103230000E94E5296D5F7F4F8F4F9F4F209169015D
:1032400030E040E050E00E94E5299B01AC01C8015C
:10325000B7010E94592A60934802709349028093F3
:103260004A0290934B020E947D2202CE82E008C067
:103270008BEA65E006C083E803C00E94A8158AEACD
:1032800060E00E948C16F4CD809113038150089564
:1032900080917700089590911503891711F090E0BF
:1032A00006C090E080911603681709F491E0892F19
:1032B00008958FE7809315038093160308958E3F3A
:1032C00011F481E00EC0883F11F482E00AC0863F0D
:1032D00011F483E006C08B3F19F410927800089532
:1032E00083E680937800089590E08091780083369B
:1032F00009F091E0892F089584E093E0089585EF27
:1033000092E008950E947C19A5EFB2E0FC018FE0E5
:1033100001900D928150E1F781E080937700E4E025
:10332000F3E08081882319F01092770005C0319670
:1033300083E0E331F807A9F70E944819882311F0C8
:103340000E94621D0895DF93CF930F92CDB7DEB731
:10335000198284E093E0BE016F5F7F4F0E94991352
:103360008981882319F01092140309C090911403E5
:1033700080911303891718F09F5F9093140320E046
:103380009091140380911303981709F421E0822F80
:103390000F90CF91DF9108950E94A31908950E9484
:1033A0003B28882319F00E943B2808950E948D2213
:1033B000882311F00E948D2208958F929F92AF92E0
:1033C000BF92CF92DF92EF92FF920F931F93DF9302
:1033D000CF930F92CDB7DEB780917800833609F096
:1033E00054C00E94CF19D82E0E947C197C0100E0A5
:1033F00081E0A82EB12C8D2D82508983F701808128
:103400008823D9F188249924C82C9501082C02C05E
:10341000220F331F0A94E2F7F7018081822331F1F2
:103420008D2D602F482D0E94C01E182F0E948A22C9
:10343000882329F4812F61E00E94971D182F1E3FD9
:1034400011F481E00EC0183F11F482E00AC0163F6B
:1034500011F483E006C01B3F49F4F981F23030F4E7
:1034600080E0C0921503009316030FC00894811CDE
:10347000911C88E08816910439F60F5F0894E11CCE
:10348000F11C0F3009F0BACF8D2D0F90CF91DF9145
:103490001F910F91FF90EF90DF90CF90BF90AF9072
:1034A0009F908F9008958FE0E5EFF2E0DF01982F75
:1034B0001D929A95E9F7E4E0F3E0DF011D928A9509
:1034C000E9F70895682F6F5F6093130389E991E02E
:1034D0000E94D52B809113038D5F80931403089570
:1034E00089E991E00E94BD2B809313038F3F19F46B
:1034F0008AE0809313030E945513809113038D5F1C
:10350000809314030E9459190E94531A089586E06B
:1035100084BD8091880490918904019690938904D8
:10352000809388040895809117030895982F8C3014
:1035300048F080E3989FC00111248B5990400E946D
:10354000BD2B07C0E8EA8E9FF0011124E050F84936
:10355000849190E081508E3F08F491E0892F089586
:1035600080E00E9471270895109217030E94B01AFC
:103570000895FF920F931F9310928904109288046C
:10358000109219031092180388EAF82E00E3809134
:10359000790020911A0330911B038C3020F02033E6
:1035A00031053CF003C0283A31051CF00E94B41AE2
:1035B00047C020911A0330911B038C3090F02F5F8D
:1035C0003F4F30931B0320931A032C593040809FA8
:1035D000C0011124820F931F0E94BD2B282F10E0E1
:1035E00017C08F9DA0011124C9010196240F351F1A
:1035F00020503849F9012491019690931B03809340
:103600001A030197480F591F40505849FA01149165
:10361000822F81508E3F80F4822F0E94EE20912FC6
:103620009F7709F4B4CF8BE4989FC0011124909345
:1036300019038093180304C00E94B41A0E943E210B
:103640001F910F91FF90089580911703882369F0CF
:103650002091880430918904809118039091190376
:103660002817390714F00E94B91A0895982F8091ED
:103670001703882391F481E08093170390937900D6
:10368000109219031092180310921B0310921A0340
:103690000E94B91A85B5836085BD08950E9476277A
:1036A00085E067E87AE10E947E270E94B01A0895BB
:1036B00090931D0380931C030895E0911C03F091E7
:1036C0001D030190F081E02D099508950E945D1B76
:1036D0000895DF92EF92FF920F931F93182F062FFA
:1036E000F42EE22E642F422F202F0E9409070E9401
:1036F000CF19D82E8F2D6E2D0E944B198823E9F0FB
:10370000002321F40E9474198823B9F08D2D6E2DA9
:103710004F2D0E94C01E182F002331F061E00E943F
:10372000971D0E945F1905C080E00E945F190E94EA
:103730005919812F865D8831D8F51123C9F1812F60
:10374000602F0E949C23182F6F2D4E2D202F0E943A
:10375000BF22D82E812F602F0E94B11D812F602F94
:103760000E94571E002311F00E94F41D0E94411F69
:10377000882349F0812F6F2D4E2D202F0E944A1F44
:10378000182F8823A9F0DD2099F0812F0E94E31ED5
:10379000882371F4002329F0812F0E94C71F8823FA
:1037A00039F4812F60E00E94971D602F0E945D1BFD
:1037B0001F910F91FF90EF90DF9008952F923F920D
:1037C0004F925F926F927F928F929F92AF92BF9231
:1037D000CF92DF92EF92FF920F931F93DF93CF93DD
:1037E00000D000D0CDB7DEB70E94CF218823E1F012
:1037F0000E9441218823C1F40E941E22092F81309A
:1038000019F4892F61E00EC0892F8756883040F463
:103810000E94461E182F802F0E94F21E182321F4AA
:10382000802F60E00E945D1B0E94CC19882309F460
:10383000AAC00E94DD19282E0E947C19182F092F7A
:103840000E947F193C01212F302FC9014C018FE0CC
:10385000289E600111248EE193E0C80ED91EEE244B
:10386000FF243E2CD3018C91882329F4F40180811C
:10387000882309F475C01C821B82C701825E9C4F9D
:103880009A838983AB8021E0422E512C0A2C02C0FE
:10389000440C551C0A94E2F7B42CD4011C91142159
:1038A00009F011E090E0F30180818B2109F091E0B3
:1038B000911709F44DC00E945422882341F011232E
:1038C00009F446C0832D6A2D0E9457225AC0822DCA
:1038D000632D4A2D0E94C01E082F612F0E949D2239
:1038E000802F0E94AD22882399F1112339F0D6014F
:1038F0008C918B298C93802F61E026C0E981FA811D
:1039000010E0808190E084219521892B29F41F5FAC
:103910003F961430B1F7122D812F632D4A2D0E944E
:10392000C01E212F30E0F90194E0EE0FFF1F9A95A1
:10393000E1F7E21BF30BEE0DFF1DE25EFC4FB094CE
:1039400090819B21908360E04A2D232D0E94691B6A
:10395000EB81FC813196FC83EB83389709F092CFA1
:103960000894E11CF11C0894611C711C0894811CD2
:10397000911C0894C11CD11CFFE0EF16F10409F062
:1039800070CF0E9482190F900F900F900F90CF91DF
:10399000DF911F910F91FF90EF90DF90CF90BF903C
:1039A000AF909F908F907F906F905F904F903F90DF
:1039B0002F900895982F80915B0380FF0FC0993658
:1039C00011F49AE60BC09A3611F499E607C09D36B9
:1039D00011F49EE603C09E3609F49DE6892F0895F2
:1039E00080E00E943C1E882319F010925C03089529
:1039F0000E94461E982F80915A03981791F09C328E
:103A000021F0903E11F0943A41F41092600310922C
:103A10005F0382E080935C0302C010925C0390938A
:103A20005A0340915C034423B1F180915F0390916C
:103A3000600301969093600380935F0320915D0380
:103A400030915E032817390734F54230E1F482E300
:103A500090E00E94E50F80915B0380FF04C08E7FA1
:103A600080935B0310C0816080935B0384EF91E0DF
:103A70002CE231E0F9013197F1F70197D9F784E6AB
:103A800090E00E94E50F88E090E060915B030E9467
:103A9000D52B10925C03089588E090E00E94BD2B26
:103AA00080935B038F3F11F410925B0388E893E1EE
:103AB0000E94572890935E0380935D030895809140
:103AC00062030895109261031092620310926303DF
:103AD0000895E82FF0E0E651FE4CEE0FFF1FE49151
:103AE0008E2F0E94BD1E0895E82FF0E0EE0FFF1FFD
:103AF000EB52FC49E4918E2F0E94BD1E08950F9356
:103B00001F93082F865D883110F0102F0CC0802F76
:103B10000E94691D182F0E94E31E882321F0802F28
:103B20000E94741D182F812F1F910F9108951F93CC
:103B3000182F865D883190F4662341F40E945F1D42
:103B4000882361F080916103811721F4812F0E9405
:103B5000691D03C0812F0E947F1D182F812F1F9187
:103B600008951F93182F865D662399F0883168F4B5
:103B70000E944819882349F080916103882329F421
:103B800010936103109262032DC081E08093620361
:103B900029C0883138F510916103112319F10E9471
:103BA0005F1D8823F9F4812F0E94741D182F0E9435
:103BB000EE20812F0E94EE20109261031092650387
:103BC000109264030E94411F882361F0812F60E0FE
:103BD00040E021E00E944A1F812F60E040E020E0A9
:103BE0000E944A1F1F9108951F9310916103112392
:103BF00011F10E945F1D8823F1F0809163038823F7
:103C0000D1F4812F0E94691D61E00E94661B0E9411
:103C1000411F882349F0809161030E94691D60E083
:103C200040E021E00E944A1F109265031092640355
:103C300081E0809363031F9108958091610388233D
:103C4000A9F080916203882389F4809164039091A4
:103C5000650301969093650380936403855F9140AB
:103C600028F081E0809362030E94F41D0895809102
:103C70006E03811181E00895863010F080E0089590
:103C8000E82FF0E0EA59FC4F8081089580916C03A1
:103C9000089510926D0310926C0310926E0386E0EB
:103CA000E6E6F3E0DF011D928A95E9F708950F93A8
:103CB0001F93162F0E947F1D082F8756112329F16D
:103CC000883038F410916C03802F0E94F21E182B5C
:103CD00025C080916E038F5F80936E0380916D038A
:103CE0008630A8F50D3B98F586E693E0602F0E949C
:103CF00096208F5F9F4F59F580916D03E82FF0E07C
:103D0000EA59FC4F00838F5F20C0883050F4109137
:103D10006C03802F0E94F21E8095182310936C0371
:103D200016C080916E03815080936E0386E693E007
:103D3000602F0E949620BC0197FD09C086E693E0A3
:103D40000E94B02080916D03815080936D031F917C
:103D50000F91089598E7899FF0011124E050FA49E6
:103D600070E083E0660F771F8A95E1F7E60FF71F93
:103D7000E40FF11DE4918E2F08950E94DA1C08953E
:103D8000FF920F931F93182F062FF42E0E94411FAE
:103D9000882361F0812F602F4F2D0E94AA1E182FBB
:103DA0000E94331F882341F010E006C0812F602F4E
:103DB0004F2D0E94AA1E182F812F0E94BD1E1F91F9
:103DC0000F91FF900895982FEEEDF1E084919817F0
:103DD00011F481E00895319681E0E23EF807B1F7F1
:103DE00080E00895E82FF0E0E558FE4FE4918E2F33
:103DF000089580916F03089580916F03882311F4D3
:103E00000E94030781E080936F03089580916F0300
:103E10008823C9F480917003909171030196909367
:103E20007103809370038053954768F0109271037B
:103E300010927003809172038F5F809372038A30B7
:103E400011F40E94FC1E089580916F03882311F0E5
:103E50000E943D0D10926F03109271031092700337
:103E600010927203089590E08D5B883108F491E020
:103E7000892F089590E0895C8C3008F491E0892FB7
:103E800008958091740308951092740381E08093E3
:103E9000BF0308950F931F93022F60E00E94971DA8
:103EA000182F8D3B80F5002369F0809173038831D2
:103EB00050F58F5F8093730387E793E0612F0E9433
:103EC000E2200EC087E793E0612F0E949620BC019C
:103ED0008FEF6F3F7807B9F087E793E00E94B0203B
:103EE00080917603E82FF0E0E157FC4F10838F5F5D
:103EF00080937603803340F080917403882321F00F
:103F00000E94441F01C010E0812F1F910F9108955E
:103F100090E3EFE8F3E0DF01292F1D922A95E9F7FE
:103F200010927603E7E7F3E0DF011D929A95E9F737
:103F3000109273038093750381E080937403109251
:103F4000BF0388EC90E00E94E50F88EE93E02CE23E
:103F500031E0F9013197F1F70197D9F784E690E064
:103F60000E94E50F0895809175038C3078F460E32A
:103F7000869FB00111246B557E4F8FE893E040E39C
:103F800050E00E94C52B8FEF8093750308951F9317
:103F9000182F0E94331F8823C9F00E94CF21882345
:103FA00061F41D5B812F0E94961A882371F00E9494
:103FB000D921812F0E94361B08C00E943B218823F3
:103FC00021F00E94FC210E943E2181E01F91089572
:103FD0008F929F92AF92BF92DF92EF92FF920F93D8
:103FE0001F93DF93CF930F92CDB7DEB78C01DD2403
:103FF0004E010894811C911C80E6A82E80E0B82E0A
:1040000033C000D000D000D0EDB7FEB73196ADB7C9
:10401000BEB712969C928E921197B382A282800FA5
:10402000911FDC018C91848315820E942B2B8DB70C
:104030009EB706960FB6F8949EBF0FBE8DBF8981BE
:104040000E9450217C01882319F088E60E94EE200E
:104050008F2D0E94EE208F2D0E94EE20EE2019F071
:1040600088E60E94EE20D3948D2D90E0F801019017
:104070000020E9F73197E01BF10B8E179F0708F23C
:104080000F90CF91DF911F910F91FF90EF90DF90F4
:10409000BF90AF909F908F9008958091BF03882329
:1040A00099F00E944819882379F00E94CF21882333
:1040B00059F41092BF030E94B31F8FEF80937503D2
:1040C00084E690E00E94E50F089528EB3BE003C0F2
:1040D000F9013197F1F70197D9F708951F93162F3A
:1040E0000E94BD2B90E002C0959587951A95E2F746
:1040F000809581701F9108950F931F93162F042FA1
:104100000E94BD2B21E030E002C0220F331F1A9520
:10411000E2F7622F60956823002309F4622B87E0A1
:1041200090E00E94D52B1F910F910895CF93DF93BC
:10413000EC01DC010D900020E9F71197A81BB90BE9
:1041400070E0AD010E94B62A009719F4EFEFFFEF7F
:1041500003C0FC01EC1BFD0BCF01DF91CF91089553
:104160009B01FC0101900020E9F73197E81BF90B56
:104170006F5F7F4F680F791FE21BF30B820F931F56
:10418000AF010E94CC2A0895FF920F931F93F42E43
:104190009B01DC010D900020E9F78C01060F171F31
:1041A000A81BB90BA61BB70B2F5F3F4F820F931FA6
:1041B000B801AD010E94CC2AF801F0821F910F9145
:1041C000FF900895462FDC010D900020E9F711972C
:1041D000A81BB90BBD010E94C4200895282F80910F
:1041E000EF039091F00301969093F0038093EF0317
:1041F0008435910524F01092F0031092EF03809122
:10420000ED039091EE03E091EF03F091F0038E1730
:104210009F0759F4009719F483E590E001C00197D6
:104220009093F0038093EF030895EE50FC4F2083AA
:1042300008952091ED033091EE038091EF0390916A
:10424000F0032817390711F480E00895C901019699
:104250009093EE038093ED038435910524F0109242
:10426000EE031092ED03E091ED03F091EE03EE50BA
:10427000FC4F808108958091F10308951092F1031D
:10428000089540E02091ED033091EE038091EF031B
:104290009091F0032817390709F441E0842F08951D
:1042A000982F81568A3118F4292F2D5510C0892F47
:1042B00081548A3120F4292F2D5332E009C0892FEF
:1042C0008153893010F020E002C0292F235130E0C3
:1042D000892F90E0FC01B097EF35F10508F048C058
:1042E000E65DFF4FEE0FFF1F0590F491E02D09945E
:1042F0002EE141C02FE13FC020E23DC021E23BC0A2
:1043000022E239C023E237C024E235C025E233C0BF
:1043100026E231C027E22FC02CE22EC02DE22CC0B5
:104320002DE229C02EE228C02EE225C02FE224C0B3
:104330002FE221C020E320C020E31DC021E31CC0E8
:1043400021E319C023E318C023E315C024E314C0FC
:1043500024E311C025E310C025E30DC026E30CC003
:1043600026E309C027E308C027E305C028E304C00B
:10437000222311F428E332E0832F922F089527E2BD
:10438000FBCF0F931F9300EC13E090E0B8014AE0DD
:1043900050E00E94DE2AC8011F910F9108950E94EB
:1043A0004121882319F481E090E008950E94931A36
:1043B00008950E944121882339F08AE2E3ECF3E07A
:1043C000DF011D928A95E9F708951092F00310928B
:1043D000EF031092EE031092ED0384E5E2EFF3E0B9
:1043E000DF011D928A95E9F78AE2E3ECF3E0DF0151
:1043F0001D928A95E9F70895CF93DF931092F00309
:104400001092EF031092EE031092ED0384E5E2EFB9
:10441000F3E0DF011D928A95E9F7C3ECD3E08881D0
:10442000882339F00E94EE202196B3E0CD3EDB07D1
:10443000B1F70E94B41ADF91CF9108951F93CF93E3
:10444000DF930E941921182F0E94331F882361F0E7
:104450000E94FC21812F8D5B0E94361B81E080939E
:10446000F10382E010E01BC0C3ECD3E0112331F470
:104470008AE2FE0111928A95E9F70AC0CE01612F06
:104480000E949620BC0197FD05C0CE010E94B0207D
:1044900082E005C0CE01612F0E94E22081E0912FD1
:1044A000DF91CF911F910895809146040895EF9276
:1044B000FF920F931F93E82EF62E03E610E0C8013B
:1044C0000E94E81F8F2D0E94C1210E94E81F85E6EF
:1044D00090E00E94E81F8E2D0E94C1210E94E81FDB
:1044E000C8010E94E81F1F910F91FF90EF9008955F
:1044F000809346040E94280908950E944D200E943E
:10450000F01C0E94241B0E9468230E941D1E0E9412
:104510009E1008958091470408958091480408955D
:104520008091490408950895FC018081823011F43E
:1045300083E001C081E080830895662369F0843FB1
:1045400029F48DE494E00E9494220895833F21F49D
:104550008EE494E00E9494220895982F80914D0457
:10456000823059F080914E04823029F49A3629F035
:1045700080E09E3619F081E0089580E008950F9361
:104580001F93022F0E947F1D182F0E94E31E882375
:1045900009F07AC0002309F469C01C3F41F0173FBD
:1045A00031F080914704882341F11A3231F580912E
:1045B0004804809349041A3299F0882319F41C3F67
:1045C00059F404C01C3F21F4823051F082E005C050
:1045D000173F31F4833021F083E08093480402C018
:1045E000109248040E94280980914804809349044D
:1045F00080E01A3209F049C041C080914A04882302
:1046000061F0812F0E943A1F882339F0195C1093C2
:104610007A0081E080934B0437C0193221F481E0A5
:104620008093470432C0153F71F480914C0491E0AF
:10463000892780934C04882319F40E94460D24C0D6
:104640000E94F80621C0123F59F40E94411F88239E
:1046500019F00E94441F18C081E080934A0414C0DE
:10466000812F609147040E943A0E0FC01C3F61F0F9
:10467000173F51F0193221F41092470481E005C030
:10468000123FE1F710924A0480E01F910F910895C4
:10469000FC0180818130A1F482E0808382E390E09C
:1046A0000E94E50F84EF91E02CE231E0F9013197AF
:1046B000F1F70197D9F784E690E00E94E50F08959D
:1046C000833029F4108284E690E00E94E50F08957B
:1046D0000E944819882341F08DE494E00E94482309
:1046E0008EE494E00E9448230E944819882379F0C0
:1046F00080914B04882359F010924B0480917A00EA
:104700008F3F29F00E94881F8FEF80937A000895D1
:10471000809150040895482F8093500487E090E0E2
:1047200063E00E947C20089587E090E063E00E94AF
:104730006E208093500408950F931F93182F062F17
:10474000893229F40E948823882319F417C0803BFA
:10475000A9F4002351F00E94461E823011F08032ED
:1047600061F481E080934F0406C080914F04882358
:1047700021F010924F0415E301C019E2812F1F911F
:104780000F91089581E080937804089581E08093EB
:10479000550410925604809351040895982F815720
:1047A0008A31B0F481E080935704662369F0E92FE1
:1047B000F0E0EE0FFF1FE855FE4F85919491909326
:1047C0005904809358040895109259041092580483
:1047D0000895982F81578330B0F481E080935A0474
:1047E000662369F0E92FF0E0EE0FFF1FE855FE4F5A
:1047F0008591949190935C0480935B04089510924A
:104800005C0410925B04089580915204811181E050
:1048100008950F931F93082F81508C3B08F059C0C7
:1048200080578A3108F455C081E080935204802F6C
:104830008756662341F1883038F410915304802F55
:104840000E94F21E182B28C080915404863008F074
:1048500040C0802F8D58823128F4E02FF0E0EF5CCB
:10486000FD4F04918FE594E0602F0E9496208F5FAA
:104870009F4F79F58FE594E0602F0E94E2208091B0
:1048800054048F5F24C0883050F410915304802F5B
:104890000E94F21E80951823109353041AC0802F93
:1048A0008D58823128F4E02FF0E0EF5CFD4F049149
:1048B0008FE594E0602F0E949620BC0197FD09C00F
:1048C0008FE594E00E94B020809154048150809341
:1048D00054041F910F9108951F93182F662351F0D0
:1048E00061E00E940924812F61E00E94CE23812F84
:1048F00061E009C060E00E940924812F60E00E940D
:10490000CE23812F60E00E94E92381E01F9108956A
:104910002F923F924F925F926F927F928F929F92CF
:10492000AF92BF92CF92DF92EF92FF920F931F93BD
:10493000DF93CF9300D00F92CDB7DEB782B3837FE2
:1049400082BB81B3837F81BB0E94FD2588E991E012
:104950000E94BD2B882351F48B9A20E048EB5BE04A
:10496000A895CA010197F1F72150D1F78B988BE7F1
:1049700090E00E94581B8DE790E00E94602886E03E
:10498000EFE5F4E0DF011D928A95E9F710925404F7
:104990001092530410925904109258047894BB2436
:1049A000EE24FF24CC24DD2473E0772E64E0662E11
:1049B0005BE7852E54E0952E48E0A42E32E0232EAE
:1049C000312C280C391C2FE5422E24E0522E8091E8
:1049D00078048823A9F4B9EECB16B3E0DB0624F4FF
:1049E0000894C11CD11C0CC0F8948B9A28E088E173
:1049F00090E00FB6F894A89581BD0FBE21BDFFCF02
:104A00008091A504882351F01092A50410925104BE
:104A10000E94241FBB24EE24FF2420C08091510457
:104A2000882339F0E1E0E093A5040E94241FBB2411
:104A300015C0BB2099F487010F5F1F4FF9EEEF16E9
:104A4000F3E0FF0654F00E944819882331F00E94D9
:104A5000FC1E7801BB24B39401C078010E94382663
:104A60008091950484FF6CC080915704882331F4B1
:104A700080915A04882311F40E94DE1B8091520415
:104A8000882309F441C080917804882309F49FCFDA
:104A9000BB2001F1F89422B331B3929A939881B379
:104AA0008C6081BB88EE93E0ECE2F1E03197F1F7A6
:104AB0000197D1F782B3862582BB82B38A2582BB58
:104AC00088E293E20197F1F722BB31BB7894109210
:104AD00052047DCFD401EA2D1D92EA95E9F7809129
:104AE000530480937B0410927C0440915404C101D0
:104AF000B20150E00E94C32A8BE794E068E00E9474
:104B00003326109252041AC080915504813081F4EA
:104B1000F2E0F0935504D401EA2D1D92EA95E9F7ED
:104B20008BE794E068E00E9433260E94531A06C087
:104B300080915604823011F4709256040E947D22B6
:104B40008091C20484FF24C080915704882371F0AF
:104B5000809158049091590479829B838A83CE0175
:104B6000019663E00E942E261092570480915A0409
:104B7000882371F080915B0490915C0469829B832F
:104B80008A83CE01019663E00E942E2610925A0479
:104B900080915504823009F01ACF80915D04909184
:104BA0005E049C012F5F3F4F30935E0420935D04B1
:104BB000883C910519F40E94BF2809CF293C310592
:104BC0000CF405CF89EC90E090935E0480935D0433
:104BD00070925504FCCE0E9468050E9428098091BD
:104BE0005604882319F482E08093560408958BE4D8
:104BF000809396048093C304089585B7886085BF29
:104C00008BB780688BBF0E94F7258AE58093950457
:104C10008093C20408951F93CF93DF93DC01162F76
:104C2000EA01888184FF05C0898198E88927898302
:104C300002C08AE58883AE014E5F5F4FFA01212FE3
:104C40008D9181932150E1F7CA01612F0E94F001FB
:104C50001C5F1883DF91CF911F91089542EC54E0BF
:104C60000E940B26089545E954E00E940B26089502
:104C70001F93CF93DF936091A804635067FDAEC08C
:104C80008091A404CCE0D0E0C81BD109C455DB4F0F
:104C90008091A3048D3209F08EC0683009F09CC069
:104CA00083EC80938A048AE580937F001092A204AB
:104CB0008881807629F0CE010E942912282F68C0B1
:104CC0009A81109293048981882331F4109294047C
:104CD00083E994E022E058C0853019F49093A90448
:104CE00050C08630D1F58B81813031F489B78B7F0C
:104CF00089BF8FE493E01DC0823029F18330F9F43D
:104D00008A81882341F48DE193E09093A7048093F6
:104D1000A60424E01EC0813041F481E293E0909328
:104D2000A7048093A6042CE114C0823089F48DE39B
:104D300093E09093A7048093A60422E10AC08132F5
:104D400011F0823229F4CE010E947011282F01C087
:104D500020E080E48093A2041BC0883019F48BEA21
:104D600094E009C0893019F49093AB040AC08A30EA
:104D700021F483E994E021E007C08B3011F40E9414
:104D8000F72583E994E020E09093A7048093A6049C
:104D90002F3F39F4888187FD2E8180E88093A2041B
:104DA00006C08F81882319F48E81821708F0822F24
:104DB0008093800011C08091A20487FF0DC0CE01B6
:104DC0000E94F4118F3F21F48EE180937F0004C094
:104DD000882311F0109280001092A80480917F0027
:104DE00084FF56C0809180008F3F09F451C0182F76
:104DF000893008F018E0811B8093800080918A043C
:104E000098E8892780938A04112379F18091A2047C
:104E100087FF07C08BE894E0612F0E94AA11182F2A
:104E200022C02091A6043091A70486FF0AC0F90190
:104E3000912FABE8B4E084918D9331969150D9F7DE
:104E400008C0D901912FEBE8F4E08D918193915046
:104E5000E1F7C90101961150810F911D1F5F9093D9
:104E6000A7048093A604193068F48BE894E0612FBE
:104E70000E94F001612F6C5F6C3041F08FEF8093E6
:104E8000800004C08FEF809380006EE160937F000C
:104E900094E180B38C7031F49150D9F71092A90449
:104EA0001092A104DF91CF911F91089593B7987F3D
:104EB000982B93BF089582E00E94562712BE89B7AF
:104EC000816089BF08959EB5987F982B9EBD0895F7
:104ED00082E00E9463271DBC1CBC89B7846089BF27
:104EE000089595B5987F982B95BD089584E00E940C
:104EF000712714BC89B7806489BF0895883040F455
:104F0000E82FF0E0EE0FFF1FEB59FB4F718360833A
:104F10000895883040F4E82FF0E0EE0FFF1FEB59C2
:104F2000FB4F1182108208958FB58D7F8FBD8FB595
:104F300081608FBD19BC18BC08958FB580628FBD8C
:104F40008FB58F7E8FBD08958FB58F7D8FBD8FB547
:104F50008F7E8FBD089599BD88BD089578941F9266
:104F60000F920FB60F9211242F933F934F935F939D
:104F70006F937F938F939F93AF93BF93EF93FF9321
:104F800078948091650490916604892B29F0E091D2
:104F90006504F09166040995FF91EF91BF91AF917F
:104FA0009F918F917F916F915F914F913F912F9141
:104FB0000F900FBE0F901F90189578941F920F922C
:104FC0000FB60F9211242F933F934F935F936F93DC
:104FD0007F938F939F93AF93BF93EF93FF937894B7
:104FE0008091670490916804892B29F0E09167040F
:104FF000F09168040995FF91EF91BF91AF919F9156
:105000008F917F916F915F914F913F912F910F9071
:105010000FBE0F901F90189578941F920F920FB6A5
:105020000F9211242F933F934F935F936F937F932E
:105030008F939F93AF93BF93EF93FF937894809157
:105040006F0490917004892B29F0E0916F04F09126
:1050500070040995FF91EF91BF91AF919F918F914E
:105060007F916F915F914F913F912F910F900FBE64
:105070000F901F901895809175040895682F809364
:10508000750487E991E00E94D52B089587E991E0A6
:105090000E94BD2B809375048F3F11F4109275040C
:1050A00008958D98959A08958D9A959808959C01E4
:1050B00080918100882311F435952795C9010895C1
:1050C00090937A04809379040895E0917904F091A3
:1050D0007A040190F081E02D09950895F8940E94DA
:1050E0006505109277041092760410927804089562
:1050F0001F93182F0E94701A112399F010E0812F2E
:105100000E9489271F5F1730D1F789B78E7F89BF2B
:1051100089B78B7F89BF89B78F7B89BF0E94512850
:1051200002C00E9454281F9108958CE090E00E94D4
:10513000BD2B809381000E944C1D0E9493220E94EF
:1051400046280E9494230E94491E80918100882352
:1051500061F40E946E2882E390E00E94E50F80E0F7
:105160000E9478280E949B1607C00E946E2881E04A
:105170000E9478280E94882481E090E008950E948F
:10518000D80F0E94BE0F0E944E1B0895ABE0B0E006
:10519000ECECF8E20C94782A5C014B017A01FC01FA
:1051A00017821682838181FD08C06FEF7FEF08C1EF
:1051B00042E050E0E40EF51E04C03E010894611C7C
:1051C000711CF501D380F401D3FC8591D3FE81914C
:1051D0004F01882309F4F1C0853259F4D3FC65915D
:1051E000D3FE61914F01653219F0062F10E01BC00C
:1051F00085E290E02BC0002309F4DFC088E693E04D
:10520000602F70E00E94AB2A892B39F4033211F42D
:10521000106103C00C3661F41068F401D3FC0591F1
:10522000D3FE01914F0117FFE6CF002309F4C5C05B
:1052300081E693E0602F70E00E94AB2A892B51F049
:1052400044E050E0E40EF51E8FE390E0B5010E94CB
:10525000FF2AB7CF033629F0033779F00335F1F48D
:105260000BC087010E5F1F4FF70180819181B5014F
:105270000E94FF2A7801A5CF1160F701C080D1807C
:1052800004C090E0B5010E94FF2AF60110FD85914F
:1052900010FF81916F018823A1F78ACF043611F0A6
:1052A000093639F517FF08C0F701208131814281A5
:1052B000538184E090E00AC0F701808191819C01D4
:1052C000442737FD4095542F82E090E0E80EF91E08
:1052D0001F7E57FF08C050954095309521953F4F50
:1052E0004F4F5F4F1064CA01B901A3012AE030E0BB
:1052F00034C00037A9F0013730F40835B1F00F366B
:1053000009F05BC006C0053739F0083709F055C011
:1053100008C028E030E00CC01F7E2AE030E008C062
:105320001061146220E130E003C0146020E132E03B
:1053300017FF08C0F701608171818281938144E089
:1053400050E008C0F70180819181BC0180E090E0CD
:1053500042E050E0E40EF51EA3010E944F2BD82E30
:10536000D618012F10E006FF05C08DE290E0B501D0
:105370000E94FF2A04FF15C0FE01ED0DF11D808182
:10538000803379F080E390E0B5010E94FF2A02FFAC
:1053900008C000721070C801885A9F4FB5010E9462
:1053A000FF2ADA94F301ED0DF11D808190E0B50143
:1053B0000E94FF2ADD20A9F704CFF50166817781DD
:1053C000CB012B96EEE00C94942A629FD001739F40
:1053D000F001829FE00DF11D649FE00DF11D929F91
:1053E000F00D839FF00D749FF00D659FF00D9927D0
:1053F000729FB00DE11DF91F639FB00DE11DF91FF4
:10540000BD01CF0111240895991B79E004C0991FB3
:10541000961708F0961B881F7A95C9F7809508950E
:10542000AA1BBB1B51E107C0AA1FBB1FA617B707CA
:1054300010F0A61BB70B881F991F5A95A9F78095E6
:105440009095BC01CD01089597FB092E07260AD03F
:1054500077FD04D0E5DF06D000201AF47095619541
:105460007F4F0895F6F7909581959F4F0895A1E29B
:105470001A2EAA1BBB1BFD010DC0AA1FBB1FEE1FCE
:10548000FF1FA217B307E407F50720F0A21BB30B19
:10549000E40BF50B661F771F881F991F1A9469F795
:1054A00060957095809590959B01AC01BD01CF01F1
:1054B000089597FB092E05260ED057FD04D0D7DF9F
:1054C0000AD0001C38F450954095309521953F4FF7
:1054D0004F4F5F4F0895F6F79095809570956195C1
:1054E0007F4F8F4F9F4F08952F923F924F925F9221
:1054F0006F927F928F929F92AF92BF92CF92DF92E4
:10550000EF92FF920F931F93CF93DF93CDB7DEB748
:10551000CA1BDB0B0FB6F894DEBF0FBECDBF0994DC
:105520002A88398848885F846E847D848C849B8433
:10553000AA84B984C884DF80EE80FD800C811B8141
:10554000AA81B981CE0FD11D0FB6F894DEBF0FBE70
:10555000CDBFED010895FC010590061621F0002055
:10556000D9F7C00108953197CF010895FC0141504A
:10557000504030F001900616D1F73197CF010895D1
:10558000882799270895FB01DC0102C001900D9244
:1055900041505040D8F708956817790768F4FB0127
:1055A000DC01E40FF51FA40FB51F02C002900E929C
:1055B00041505040D8F708950C94C32AFB019F0135
:1055C000E8944230C4F04532B4F44A3029F497FBF1
:1055D0001EF4909581959F4F642F77270E94102A83
:1055E000805D8A330CF0895D8193CB010097A1F730
:1055F00016F45DE251931082C9010C94F32B0F93C2
:105600001F93CF93DF938C01EB018B8181FF1BC034
:1056100082FF0DC02E813F818C819D812817390723
:1056200064F4E881F9810193F983E88306C0E88591
:10563000F985802F0995892B31F48E819F81019600
:105640009F838E8302C00FEF1FEFC801DF91CF91C0
:105650001F910F910895AEE0B0E0E1E3FBE20C94FE
:10566000822A0D891E8986E08C831A8309838FEF35
:105670009FE79E838D839E01275E3F4FCE0101965B
:105680006F89788DA9010E94C6282F813885020F65
:10569000131FF80110822E96E4E00C949E2AFA0162
:1056A000AA27283051F1203181F1E8946F936E7F61
:1056B0006E5F7F4F8F4F9F4FAF4FB1E03ED0B4E052
:1056C0003CD0670F781F891F9A1FA11D680F791F93
:1056D0008A1F911DA11D6A0F711D811D911DA11DA4
:1056E00020D009F468943F912AE0269F11243019B4
:1056F000305D3193DEF6CF010895462F4770405D4F
:105700004193B3E00FD0C9F7F6CF462F4F70405DFD
:105710004A3318F0495D31FD4052419302D0A9F758
:10572000EACFB4E0A6959795879577956795BA9552
:10573000C9F700976105710508959B01AC010A2E18
:1057400006945795479537952795BA95C9F7620FEF
:10575000731F841F951FA01D0895DC01CB01FC0160
:10576000E199FECF06C0FFBBEEBBE09A31960DB2C9
:105770000D9241505040B8F70895E199FECF9FBB7C
:105780008EBBE09A99278DB30895DC01A40FB51F55
:105790004150504048F0CB01840F951F2E910E943C
:1057A000D62B41505040D0F70895262FE199FECFD7
:1057B0009FBB8EBBE09A01970DB2021631F02DBB54
:1057C0000FB6F894E29AE19A0FBE0895262FE19958
:1057D000FECF9FBB8EBB2DBB0FB6F894E29AE19A29
:1057E0000FBE01960895DC01FC01672F71917723AC
:1057F000E1F7329704C07C916D9370836291AE178C
:0A580000BF07C8F30895F894FFCF26
:10580A002563002E002C00FF0C780F0F0101D41520
:10581A00CC1502050000000163FFFF6C2404245A22
:02582A00FFFF7E
:00000001FF
